{
  "_format": "hh-sol-artifact-1",
  "contractName": "DigProt",
  "sourceName": "contracts/DigProt.sol",
  "abi": [
    {
      "anonymous": false,
      "inputs": [
        {
          "indexed": true,
          "internalType": "address",
          "name": "patientAddress",
          "type": "address"
        },
        {
          "indexed": false,
          "internalType": "string",
          "name": "ipfsHash",
          "type": "string"
        },
        {
          "indexed": false,
          "internalType": "uint256",
          "name": "timestamp",
          "type": "uint256"
        }
      ],
      "name": "FileDeleted",
      "type": "event"
    },
    {
      "anonymous": false,
      "inputs": [
        {
          "indexed": true,
          "internalType": "address",
          "name": "patientAddress",
          "type": "address"
        },
        {
          "indexed": false,
          "internalType": "string",
          "name": "ipfsHash",
          "type": "string"
        },
        {
          "indexed": false,
          "internalType": "uint256",
          "name": "timestamp",
          "type": "uint256"
        }
      ],
      "name": "FileUploaded",
      "type": "event"
    },
    {
      "inputs": [
        {
          "internalType": "address",
          "name": "",
          "type": "address"
        }
      ],
      "name": "addressToNonce",
      "outputs": [
        {
          "internalType": "uint256",
          "name": "",
          "type": "uint256"
        }
      ],
      "stateMutability": "view",
      "type": "function"
    },
    {
      "inputs": [
        {
          "internalType": "uint256",
          "name": "index",
          "type": "uint256"
        }
      ],
      "name": "deletePatientFile",
      "outputs": [],
      "stateMutability": "nonpayable",
      "type": "function"
    },
    {
      "inputs": [
        {
          "internalType": "address",
          "name": "patientAddress",
          "type": "address"
        }
      ],
      "name": "getCheckCode",
      "outputs": [
        {
          "internalType": "string",
          "name": "",
          "type": "string"
        }
      ],
      "stateMutability": "view",
      "type": "function"
    },
    {
      "inputs": [
        {
          "internalType": "address",
          "name": "patientAddress",
          "type": "address"
        }
      ],
      "name": "getPatientFiles",
      "outputs": [
        {
          "components": [
            {
              "internalType": "string",
              "name": "ipfsHash",
              "type": "string"
            },
            {
              "internalType": "uint256",
              "name": "timestamp",
              "type": "uint256"
            }
          ],
          "internalType": "struct DigProt.PatientFile[]",
          "name": "",
          "type": "tuple[]"
        }
      ],
      "stateMutability": "view",
      "type": "function"
    },
    {
      "inputs": [
        {
          "internalType": "string",
          "name": "_checkHash",
          "type": "string"
        }
      ],
      "name": "setCheckHash",
      "outputs": [],
      "stateMutability": "nonpayable",
      "type": "function"
    },
    {
      "inputs": [
        {
          "internalType": "string",
          "name": "_ipfsHash",
          "type": "string"
        }
      ],
      "name": "uploadPatientFile",
      "outputs": [],
      "stateMutability": "nonpayable",
      "type": "function"
    }
  ],
  "bytecode": "0x608060405234801561001057600080fd5b5061134b806100206000396000f3fe608060405234801561001057600080fd5b50600436106100625760003560e01c8063117629321461006757806319f4d16114610083578063ad79d15d1461009f578063c1816dfb146100cf578063ee2dffc0146100ff578063fc6266d81461012f575b600080fd5b610081600480360381019061007c91906109ac565b61014b565b005b61009d60048036038101906100989190610a2b565b61019b565b005b6100b960048036038101906100b49190610ab6565b6104dc565b6040516100c69190610af2565b60405180910390f35b6100e960048036038101906100e49190610ab6565b6104f4565b6040516100f69190610c9a565b60405180910390f35b61011960048036038101906101149190610ab6565b61062d565b6040516101269190610d06565b60405180910390f35b610149600480360381019061014491906109ac565b6106fe565b005b80600260003373ffffffffffffffffffffffffffffffffffffffff1673ffffffffffffffffffffffffffffffffffffffff16815260200190815260200160002090816101979190610f34565b5050565b6000803373ffffffffffffffffffffffffffffffffffffffff1673ffffffffffffffffffffffffffffffffffffffff16815260200190815260200160002080549050811061021e576040517f08c379a000000000000000000000000000000000000000000000000000000000815260040161021590611052565b60405180910390fd5b3373ffffffffffffffffffffffffffffffffffffffff167f4f290849018eb780affafba63563006086546149769e7b527f0e61c4f282de076000803373ffffffffffffffffffffffffffffffffffffffff1673ffffffffffffffffffffffffffffffffffffffff16815260200190815260200160002083815481106102a6576102a5611072565b5b90600052602060002090600202016000016000803373ffffffffffffffffffffffffffffffffffffffff1673ffffffffffffffffffffffffffffffffffffffff168152602001908152602001600020848154811061030757610306611072565b5b906000526020600020906002020160010154604051610327929190611125565b60405180910390a26000803373ffffffffffffffffffffffffffffffffffffffff1673ffffffffffffffffffffffffffffffffffffffff16815260200190815260200160002060016000803373ffffffffffffffffffffffffffffffffffffffff1673ffffffffffffffffffffffffffffffffffffffff168152602001908152602001600020805490506103bb9190611184565b815481106103cc576103cb611072565b5b90600052602060002090600202016000803373ffffffffffffffffffffffffffffffffffffffff1673ffffffffffffffffffffffffffffffffffffffff168152602001908152602001600020828154811061042a57610429611072565b5b90600052602060002090600202016000820181600001908161044c91906111ce565b50600182015481600101559050506000803373ffffffffffffffffffffffffffffffffffffffff1673ffffffffffffffffffffffffffffffffffffffff1681526020019081526020016000208054806104a8576104a76112b6565b5b6001900381819060005260206000209060020201600080820160006104cd91906107f5565b60018201600090555050905550565b60016020528060005260406000206000915090505481565b60606000808373ffffffffffffffffffffffffffffffffffffffff1673ffffffffffffffffffffffffffffffffffffffff168152602001908152602001600020805480602002602001604051908101604052809291908181526020016000905b82821015610622578382906000526020600020906002020160405180604001604052908160008201805461058790610d57565b80601f01602080910402602001604051908101604052809291908181526020018280546105b390610d57565b80156106005780601f106105d557610100808354040283529160200191610600565b820191906000526020600020905b8154815290600101906020018083116105e357829003601f168201915b5050505050815260200160018201548152505081526020019060010190610554565b505050509050919050565b6060600260008373ffffffffffffffffffffffffffffffffffffffff1673ffffffffffffffffffffffffffffffffffffffff168152602001908152602001600020805461067990610d57565b80601f01602080910402602001604051908101604052809291908181526020018280546106a590610d57565b80156106f25780601f106106c7576101008083540402835291602001916106f2565b820191906000526020600020905b8154815290600101906020018083116106d557829003601f168201915b50505050509050919050565b600060405180604001604052808381526020014281525090506000803373ffffffffffffffffffffffffffffffffffffffff1673ffffffffffffffffffffffffffffffffffffffff16815260200190815260200160002081908060018154018082558091505060019003906000526020600020906002020160009091909190915060008201518160000190816107949190610f34565b506020820151816001015550503373ffffffffffffffffffffffffffffffffffffffff167f2256cc6482ddef3e8146b3b654095ac2e0d51bc048a5685c6d950c959ee5acb583426040516107e99291906112e5565b60405180910390a25050565b50805461080190610d57565b6000825580601f106108135750610832565b601f0160209004906000526020600020908101906108319190610835565b5b50565b5b8082111561084e576000816000905550600101610836565b5090565b6000604051905090565b600080fd5b600080fd5b600080fd5b600080fd5b6000601f19601f8301169050919050565b7f4e487b7100000000000000000000000000000000000000000000000000000000600052604160045260246000fd5b6108b982610870565b810181811067ffffffffffffffff821117156108d8576108d7610881565b5b80604052505050565b60006108eb610852565b90506108f782826108b0565b919050565b600067ffffffffffffffff82111561091757610916610881565b5b61092082610870565b9050602081019050919050565b82818337600083830152505050565b600061094f61094a846108fc565b6108e1565b90508281526020810184848401111561096b5761096a61086b565b5b61097684828561092d565b509392505050565b600082601f83011261099357610992610866565b5b81356109a384826020860161093c565b91505092915050565b6000602082840312156109c2576109c161085c565b5b600082013567ffffffffffffffff8111156109e0576109df610861565b5b6109ec8482850161097e565b91505092915050565b6000819050919050565b610a08816109f5565b8114610a1357600080fd5b50565b600081359050610a25816109ff565b92915050565b600060208284031215610a4157610a4061085c565b5b6000610a4f84828501610a16565b91505092915050565b600073ffffffffffffffffffffffffffffffffffffffff82169050919050565b6000610a8382610a58565b9050919050565b610a9381610a78565b8114610a9e57600080fd5b50565b600081359050610ab081610a8a565b92915050565b600060208284031215610acc57610acb61085c565b5b6000610ada84828501610aa1565b91505092915050565b610aec816109f5565b82525050565b6000602082019050610b076000830184610ae3565b92915050565b600081519050919050565b600082825260208201905092915050565b6000819050602082019050919050565b600081519050919050565b600082825260208201905092915050565b60005b83811015610b73578082015181840152602081019050610b58565b60008484015250505050565b6000610b8a82610b39565b610b948185610b44565b9350610ba4818560208601610b55565b610bad81610870565b840191505092915050565b610bc1816109f5565b82525050565b60006040830160008301518482036000860152610be48282610b7f565b9150506020830151610bf96020860182610bb8565b508091505092915050565b6000610c108383610bc7565b905092915050565b6000602082019050919050565b6000610c3082610b0d565b610c3a8185610b18565b935083602082028501610c4c85610b29565b8060005b85811015610c885784840389528151610c698582610c04565b9450610c7483610c18565b925060208a01995050600181019050610c50565b50829750879550505050505092915050565b60006020820190508181036000830152610cb48184610c25565b905092915050565b600082825260208201905092915050565b6000610cd882610b39565b610ce28185610cbc565b9350610cf2818560208601610b55565b610cfb81610870565b840191505092915050565b60006020820190508181036000830152610d208184610ccd565b905092915050565b7f4e487b7100000000000000000000000000000000000000000000000000000000600052602260045260246000fd5b60006002820490506001821680610d6f57607f821691505b602082108103610d8257610d81610d28565b5b50919050565b60008190508160005260206000209050919050565b60006020601f8301049050919050565b600082821b905092915050565b600060088302610dea7fffffffffffffffffffffffffffffffffffffffffffffffffffffffffffffffff82610dad565b610df48683610dad565b95508019841693508086168417925050509392505050565b6000819050919050565b6000610e31610e2c610e27846109f5565b610e0c565b6109f5565b9050919050565b6000819050919050565b610e4b83610e16565b610e5f610e5782610e38565b848454610dba565b825550505050565b600090565b610e74610e67565b610e7f818484610e42565b505050565b5b81811015610ea357610e98600082610e6c565b600181019050610e85565b5050565b601f821115610ee857610eb981610d88565b610ec284610d9d565b81016020851015610ed1578190505b610ee5610edd85610d9d565b830182610e84565b50505b505050565b600082821c905092915050565b6000610f0b60001984600802610eed565b1980831691505092915050565b6000610f248383610efa565b9150826002028217905092915050565b610f3d82610b39565b67ffffffffffffffff811115610f5657610f55610881565b5b610f608254610d57565b610f6b828285610ea7565b600060209050601f831160018114610f9e5760008415610f8c578287015190505b610f968582610f18565b865550610ffe565b601f198416610fac86610d88565b60005b82811015610fd457848901518255600182019150602085019450602081019050610faf565b86831015610ff15784890151610fed601f891682610efa565b8355505b6001600288020188555050505b505050505050565b7f496e646578206f7574206f6620626f756e647300000000000000000000000000600082015250565b600061103c601383610cbc565b915061104782611006565b602082019050919050565b6000602082019050818103600083015261106b8161102f565b9050919050565b7f4e487b7100000000000000000000000000000000000000000000000000000000600052603260045260246000fd5b600081546110ae81610d57565b6110b88186610cbc565b945060018216600081146110d357600181146110e95761111c565b60ff19831686528115156020028601935061111c565b6110f285610d88565b60005b83811015611114578154818901526001820191506020810190506110f5565b808801955050505b50505092915050565b6000604082019050818103600083015261113f81856110a1565b905061114e6020830184610ae3565b9392505050565b7f4e487b7100000000000000000000000000000000000000000000000000000000600052601160045260246000fd5b600061118f826109f5565b915061119a836109f5565b92508282039050818111156111b2576111b1611155565b5b92915050565b6000815490506111c781610d57565b9050919050565b8181036111dc5750506112b4565b6111e5826111b8565b67ffffffffffffffff8111156111fe576111fd610881565b5b6112088254610d57565b611213828285610ea7565b6000601f8311600181146112425760008415611230578287015490505b61123a8582610f18565b8655506112ad565b601f19841661125087610d88565b965061125b86610d88565b60005b828110156112835784890154825560018201915060018501945060208101905061125e565b868310156112a0578489015461129c601f891682610efa565b8355505b6001600288020188555050505b5050505050505b565b7f4e487b7100000000000000000000000000000000000000000000000000000000600052603160045260246000fd5b600060408201905081810360008301526112ff8185610ccd565b905061130e6020830184610ae3565b939250505056fea26469706673582212204f890e1a49fae719d42606397e6e95dd6c3d0041cea72eb0d4589cb04522e3bd64736f6c63430008130033",
  "linkReferences": {},
  "deployedLinkReferences": {}
}